:0200030003B840
:0200050003589E
:0200070003886C
:020009000322D0
:1003CF00040D0000000004110000000004150000DF
:0203DF0000001C
:0903F300E4FFFEFDFCC30203E27D
:1003B800E4F5807F011201257F021201257F0312D7
:0703C8000125E4FF0201AE74
:100358007D327F02120237208003D38001C392804E
:10036800AB10AA0FA90EA80D1203F370047F018029
:1003780002E4FFFEFDFC8F108E0F8D0E8C0D80D0D9
:100388007D647F02120237208103D38001C39281EA
:10039800AB14AA13A912A8111203F370047F0180E9
:1003A80002E4FFFEFDFC8F148E138D128C1180D099
:100322007DC87F02120237208203D38001C39282EA
:10033200E4FFFEFDFCAB18AA17A916A815C3120309
:10034200E270047F018002E4FFFEFDFC8F188E172D
:060352008D168C1580CA17
:03000B00020013DD
:10000E00C2AF80FE3212001285D00B75D008AAE066
:10001E00C28CE58A24F7F58AE58C34D8F58CD28C1F
:10002E00EC2422F8E6BC030274FFC39581B41400DD
:10003E0040CE7904781916E608700BC2AFE630E1AF
:10004E00034418F6D2AF08D9EDEA8BD022E50CFFA7
:10005E0023241AF80F0808BF04047F00781AE6302C
:10006E00E4F200E50CC39F5020050C7421250CF81A
:10007E00E6FDA68108E6AE0CBE030274FFCDF8E8DD
:10008E006D60E008E6C0E080F6E50CD39F4027E502
:10009E000C2422F8E6AE0CBE030274FFFD18E6CD6A
:1000AE00F8E5816D6006D0E0F61880F5E50C2421A8
:1000BE00C8F6150C80D3E50C23241AF87F04C2AFC2
:1000CE00E630E00310E20C7F0030E10730E3047FFE
:1000DE000854F4547CC6D2AF54804207227821A62D
:1000EE008174036006FF0876FFDFFB7F04E4781956
:0D00FE00F608F608DFFA781A763090000355
:10010B00740193C0E0E493C0E0438901758AF075F4
:0A011B008CD8D28CD2AFD2A92203F7
:10012500EFD3940340037FFF22741A2F2FF8E620A4
:10013500E5F4C2AFE64430F6D2AFAE0CEEC39F5045
:10014500210E74212EF8E6F908E618BE030274FFA5
:10015500FDED69600909E71919F7090980F3161614
:1001650080DAEED39F400405810581EED39F4022BE
:1001750074212EF808E6F9EEB50C02A981180606D9
:10018500E6FDED6960091919E70909F71980F31EFC
:1001950080D9EF2421F8E604F8EF2F0490000393AB
:0901A500F608EF2F93F67F00220B
:1001AE00EFD3940340037FFF22EF23241AF8E630A7
:1001BE00E5F4C2AFE6548CF6D2AFE50CB5070A747F
:1001CE00212FF8E6F58102005B502E74222FF8E6FF
:1001DE00BF030274FFFD18E6F974212FF8FBE6FC4D
:1001EE00E96C6008A805E7F61D1980F4A803A605BA
:1001FE001FE50CB507E37F002274222FF8E6FD18E9
:10020E0086010F74212FF8A601088604E50CB507A8
:10021E0002AC81ED6C60080D09A805E6F780F4E5E7
:09022E000CB507DE89817F002276
:100237008FF0E4FFFEE50C232419F8C2A930F70D6F
:100247007F08E6600B2DF660325030800730F106EC
:10025700EDF660277E020830F010C2AFE610E72502
:100267000E30E20CD2AF7F048014C2AFE610E71560
:1002770054EC4EF6D2AFD2A902005B7F0808EF44D8
:0F02870083F4C2AF56C6D2AFD2A954804FFF2224
:0300000002029663
:0C029600787FE4F6D8FD7581240202DDBB
:1003E200EB9FF5F0EA9E42F0E99D42F0E89C45F071
:0103F20022E8
:1002A2000200EBE493A3F8E493A34003F68001F287
:1002B20008DFF48029E493A3F85407240CC8C3335D
:1002C200C4540F4420C8834004F456800146F6DF2C
:1002D200E4800B01020408102040809003CFE47EEA
:1002E200019360BCA3FF543F30E509541FFEE49321
:1002F200A360010ECF54C025E060A840B8E493A3E8
:10030200FAE493A3F8E493A3C8C582C8CAC583CA12
:10031200F0A3C8C582C8CAC583CADFE9DEE780BECA
:0103E100001B
:00000001FF
