:070000000204E404BA0451FC
:10000B00020013C2AF80FE3212001285D00B75D0E6
:10001B0008AAE0C28CE58A24F7F58AE58C34D8F57A
:10002B008CD28CEC2430F8E6BC010274FFC39581B2
:10003B00B4140040CE7902782B16E608700BC2AFD1
:10004B00E630E1034418F6D2AF08D9EDEA8BD022A3
:10005B00E50CFF23242CF80F0808BF02047F00785F
:10006B002CE630E4F200E50CC39F5020050C742FF6
:10007B00250CF8E6FDA68108E6AE0CBE010274FF66
:10008B00CDF8E86D60E008E6C0E080F6E50CD39FA4
:10009B004027E50C2430F8E6AE0CBE010274FFFDE0
:1000AB0018E6CDF8E5816D6006D0E0F61880F5E531
:1000BB000C242FC8F6150C80D3E50C23242CF87FC9
:1000CB0004C2AFE630E00310E20C7F0030E10730F2
:1000DB00E3047F0854F4547CC6D2AF548042072209
:1000EB00782FA68174016006FF0876FFDFFB7F0285
:1000FB00E4782BF608F608DFFA782C7630900003BC
:10010B00740193C0E0E493C0E0438901758AF075F4
:10011B008CD8D28CD2AFD2A92201EFD39401400359
:10012B007FFF22742C2F2FF8E620E5F4C2AFE644B4
:10013B0030F6D2AFAE0CEEC39F50210E742F2EF8BB
:10014B00E6F908E618BE010274FFFDED69600909C6
:10015B00E71919F7090980F3161680DAEED39F40D9
:10016B000405810581EED39F4022742F2EF808E6FB
:10017B00F9EEB50C02A981180606E6FDED696009DA
:10018B001919E70909F71980F31E80D9EF242FF805
:10019B00E604F8EF2F0490000393F608EF2F93F685
:1001AB007F0022EFD3940140037FFF22EF23242C07
:1001BB00F8E630E5F4C2AFE6548CF6D2AFE50CB5F9
:1001CB00070A742F2FF8E6F58102005B502E74306E
:1001DB002FF8E6BF010274FFFD18E6F9742F2FF814
:1001EB00FBE6FCE96C6008A805E7F61D1980F4A88E
:1001FB0003A6051FE50CB507E37F002274302FF82B
:10020B00E6FD1886010F742F2FF8A601088604E56A
:10021B000CB50702AC81ED6C60080D09A805E6F77B
:10022B0080F4E50CB507DE89817F0022BB010689CE
:10023B00828A83E0225002E722BBFE02E3228982FC
:10024B008A83E49322BB010CE58229F582E5833A8C
:10025B00F583E0225006E92582F8E622BBFE06E98B
:10026B002582F8E222E58229F582E5833AF583E4DB
:10027B009322BB010689828A83F0225002F722BBAC
:10028B00FE01F322F8BB010DE58229F582E5833AE5
:10029B00F583E8F0225006E92582C8F622BBFE055D
:1002AB00E92582C8F2228B1E8A1F8920120308902F
:1002BB0000021203B212027D1203CA900002120254
:1002CB00501203BC90000112028F9000011203B276
:1002DB009000031203C79000011202501203BC904E
:1002EB0000041203C7120237FF1203BB9000061261
:1002FB00028FEF540F243090000702028F8B248A59
:10030B002589267528FF752904752AF0E4F527AB96
:10031B0028052AE52AAA297002052914F9120237A1
:10032B00FF12034BAB240526E526AA2570020525F3
:10033B0014F9EF12027D0527E527C3940740D0225D
:10034B00C2B6D2B500E4FD1203D10DBD08F900E42D
:10035B00FDA2B4E433FFC43333335480FCEEC31338
:10036B004CFED2B6C2B60DBD08E7C2B500D2B60080
:10037B00C2B400D2B400AF06228B1E8A1F8920E4C0
:10038B00F521E52104FDAB1E0520E520AA1F700217
:10039B00051F14F9120237FB7F0112042D0521E50D
:1003AB0021C3940840DC22AB1EAA1FA920120250C5
:1003BB00C4540F2430AB21AA22A9232212028FABE3
:1003CB001EAA1FA92022EF1392B4EFC313FFD2B6BC
:1003DB00C2B622E4FD7F8E120409E4F51DE51D90E3
:1003EB0004F793FFE51D9004FE93FD120409051D10
:1003FB00E51DC3940740E67D807F8E020409C2B6DB
:10040B00D2B500E4FE1203D10EBE08F9E4FEED13E3
:10041B0092B4EDC313FDD2B6C2B60EBE08F0C2B590
:10042B0000228F228D238B24E522B40106E52324A1
:10043B007F8009E522B4020DE52324BFFF12048857
:10044B00AF241204A1227521007522007523157BA0
:10045B00007A00790D1202B17B007A007915120334
:10046B008480E3EF1FAA0670011E4A600F7D01ED29
:10047B00D3940040EE7C2FDCFE1D80F322C2A6C27B
:10048B00A58F807F017E0012046ED2A77F057E00B0
:10049B0012046EC2A722D2A6C2A58F807F017E0056
:1004AB0012046ED2A77F057E0012046EC2A72275BE
:1004BB001A2D75172D1204D01203DE7F01120125A0
:1004CB00E4FF0201AE7F381204887F0C1204887F90
:1004DB00061204887F01020488787FE4F6D8FD7544
:1004EB0081300200EB81838587898B8D80828486A6
:0A04FB00888A8C000012070506161F
:00000001FF
